:100000000C942A000C9434000C9434000C943400AA
:100010000C9434000C9434000C9434000C94340090
:100020000C9434000C9434000C9434000C94340080
:100030000C9434000C9434000C9434000C94340070
:100040000C9434000C9434000C9434000C94340060
:100050000C94340011241FBECFE5D8E0DEBFCDBF25
:100060000E9484000C94A6000C94000081B3876069
:1000700081BB82B382BB08958823D1F092B3916093
:1000800092BB92B39B7F92BBE7EAF1E63197F1F71F
:1000900000C0000092B39D7F92BBE7EAF1E6319782
:1000A000F1F700C0000092B3926092BB8150E4CFA0
:1000B000F1E2FA95F1F7000082B3846082BB089503
:1000C0008823D1F092B39E7F92BB92B39B7F92BB69
:1000D000E7EAF1E63197F1F700C0000092B39D7FA7
:1000E00092BBE7EAF1E63197F1F700C0000092B366
:1000F000926092BB8150E4CFF1E2FA95F1F70000F3
:1001000082B3846082BB089581B381BB81B3876071
:1001100081BB82B3886182BB0E94360083990AC08A
:1001200085E00E943C0087EA91E60197F1F700C064
:100130000000F4CF8499F2CF85E00E94600087EA46
:1001400091E60197F1F700C00000E8CFF894FFCFE7
:00000001FF
