S01B00004469676974616C5F506F745F583943313033532E737265639F
S11300000C942A000C9434000C9434000C943400A6
S11300100C9434000C9434000C9434000C9434008C
S11300200C9434000C9434000C9434000C9434007C
S11300300C9434000C9434000C9434000C9434006C
S11300400C9434000C9434000C9434000C9434005C
S11300500C94340011241FBECFE5D8E0DEBFCDBF21
S11300600E9436000C9440000C94000027E88DEFA9
S113007094E2215080409040E1F700C00000FFCF9F
S1070080F894FFCF1E
S9030000FC
